:020000040000FA
:100000000C9462000C948A000C948A000C948A0070
:100010000C948A000C948A000C948A000C948A0038
:100020000C948A000C948A000C948A000C940506A7
:100030000C948A000C948A000C948A000C948A0018
:100040000C94BB050C948A000C9489050C946305F0
:100050000C948A000C948A000C948A000C948A00F8
:100060000C948A000C948A000000000024002700F1
:100070002A0000000000250028002B0000000000DE
:1000800023002600290004040404040404040202DA
:100090000202020203030303030301020408102007
:1000A0004080010204081020010204081020000012
:1000B0000008000201000003040700000000000027
:1000C0000000C10611241FBECFEFD8E0DEBFCDBFB8
:1000D00012E0A0E0B1E0E6EAF8E102C005900D927E
:1000E000A431B107D9F723E0A4E1B2E001C01D9229
:1000F000AE36B207E1F710E0C2E6D0E004C02197C7
:10010000FE010E944B0CC136D107C9F70E94960729
:100110000C94510C0C940000CF92DF92EF92FF925E
:10012000DC01A03282E0B807D4F5A53BB10514F09C
:10013000A4EBB0E040916C0328E830E0241B3109C7
:1001400047FD3395220F331F220F331F6901330FF1
:10015000EE08FF0840916D0328E532E0241B3109C9
:1001600047FD3395220F331F220F331F032E000C40
:10017000440B550B2C193D094E095F09B7FF02C00E
:10018000B0E0A0E00E94060C24EB30E040E050E03C
:100190000E94DC0BC20ED31EE41EF51ED601E091B8
:1001A0006B03EC3080F520916C0388E890E0821BB3
:1001B000910927FD9395880F991F880F991FA817FC
:1001C000B90784F020916D0388E592E0821B9109C4
:1001D00027FD9395880F991F880F991FA817B907B6
:1001E0000CF4CD010297880F991F4FB7F8942E2F6A
:1001F00030E0F901EE0FFF1FE20FF31FE154FD4F56
:10020000928381834FBFFF90EF90DF90CF9008954E
:1002100096E0899FD0011124AC51BD4F90967C93FC
:100220006E935F9791E091969C939197E091510323
:10023000F091520390915003992339F0309751F087
:10024000811108C0809100030994309719F05C96E1
:100250008C91FACF0895CF92DF92EF92FF920F9395
:100260001F9396E0899FF0011124EC51FD4F11A2DC
:10027000278D30A12130310551F178F02230310540
:1002800009F451C02330310509F452C01F910F9178
:10029000FF90EF90DF90CF9008956623B9F361E06F
:1002A00070E00E9408012FB7F89480911E0290918F
:1002B0001F02A0912002B09121022FBF80933C0326
:1002C00090933D03A0933E03B0933F03DFCF9FB7CE
:1002D000F894C0901E02D0901F02E0902002F0908F
:1002E00021029FBF00913C0310913D0320913E03EA
:1002F00030913F03C01AD10AE20AF30A00914E037B
:1003000010914F0330E020E00C151D052E053F0530
:1003100050F462E070E01F910F91FF90EF90DF903A
:10032000CF900C9408016111B1CF63E070E0F3CF7E
:1003300070E060E0F0CFFC01538D448D252F30E05C
:10034000842F90E0821B930B541710F0CF960895E2
:1003500001970895FC01918D828D981761F0A28D0F
:10036000AE0FBF2FB11D5D968C91928D9F5F9F73D5
:10037000928F90E008958FEF9FEF0895FC01918D8B
:10038000828D981731F0828DE80FF11D858D90E0F8
:1003900008958FEF9FEF0895FC01918D228D892F95
:1003A00090E0805C9F4F821B91098F73992708957D
:1003B000FC01A48DA80FB92FB11DA35ABF4F2C91DA
:1003C000848D90E001968F739927848FA689B789D1
:1003D0002C93A089B1898C91837080648C93938DC8
:1003E000848D981306C00288F389E02D80818F7D6B
:1003F00080830895EF92FF920F931F93CF93DF9323
:10040000EC0181E0888F9B8D8C8D98131AC0E88950
:10041000F989808185FF15C09FB7F894EE89FF891F
:100420006083E889F98980818370806480839FBFBD
:1004300081E090E0DF91CF911F910F91FF90EF90BD
:100440000895F62E0B8D10E00F5F1F4F0F731127CD
:10045000E02E8C8D8E110CC00FB607FCFACFE88908
:10046000F989808185FFF5CFCE010E94D801F1CFB7
:10047000EB8DEC0FFD2FF11DE35AFF4FF0829FB77C
:10048000F8940B8FEA89FB8980818062CFCFCF936C
:10049000DF93EC01888D8823B9F0AA89BB89E889AC
:1004A000F9898C9185FD03C0808186FD0DC00FB652
:1004B00007FCF7CF8C9185FFF2CF808185FFEDCFD0
:1004C000CE010E94D801E9CFDF91CF91089582E259
:1004D00092E00E94CC0121E0892B09F420E0822FD8
:1004E000089580E090E0892B29F00E946702811135
:1004F0000C9400000895AF92BF92CF92DF92EF92DA
:10050000FF920F931F93CF93DF936C017B018B01BD
:10051000040F151FEB015E01AE18BF08C017D1070D
:1005200059F06991D601ED91FC910190F081E02D97
:10053000C6010995892B79F7C501DF91CF911F91EC
:100540000F91FF90EF90DF90CF90BF90AF90089504
:10055000833081F028F4813099F08230A9F0089539
:100560008730A9F08830C9F08430B1F480918000E0
:100570008F7D03C0809180008F77809380000895E5
:1005800084B58F7784BD089584B58F7DFBCF80912E
:10059000B0008F778093B00008958091B0008F7D78
:1005A000F9CFCF93DF93282F30E0F901E255FF4FC9
:1005B0008491F901E656FF4FD491F901EA57FF4FB4
:1005C000C491CC23A1F081110E94A802EC2FF0E08D
:1005D000EE0FFF1FE458FF4FA591B491EC91ED236E
:1005E00081E090E009F480E0DF91CF91089580E010
:1005F00090E0FACF862F0C94D1021F93CF93DF9314
:10060000282F30E0F901E255FF4F8491F901E656B9
:10061000FF4FD491F901EA57FF4FC491CC23A9F0C1
:10062000162F81110E94A802EC2FF0E0EE0FFF1FA1
:10063000EE58FF4FA591B4918FB7F894EC9111113A
:1006400008C0D095DE23DC938FBFDF91CF911F913F
:100650000895DE2BF8CF862F642F0C94FD02CF93E4
:10066000DF9390E0FC01E656FF4F24918A579F4F9D
:10067000FC0184918823C9F090E0880F991FFC0148
:10068000E859FF4FA591B491FC01EE58FF4FC59179
:10069000D49161110DC09FB7F8948C91209582235D
:1006A0008C938881282328839FBFDF91CF91089561
:1006B000623051F49FB7F8943C91822F8095832348
:1006C0008C93E8812E2BEFCF8FB7F894EC912E2BE3
:1006D0002C938FBFEACF862F642F0C942F033FB744
:1006E000F8948091160290911702A0911802B0918F
:1006F000190226B5A89B05C02F3F19F00196A11D30
:10070000B11D3FBFBA2FA92F982F8827BC01CD015B
:10071000620F711D811D911D42E0660F771F881FBA
:10072000991F4A95D1F708958F929F92AF92BF92E9
:10073000CF92DF92EF92FF924B015C010E946F0318
:100740006B017C010E946F036C197D098E099F0962
:10075000683E734081059105A8F321E0821A910853
:10076000A108B10888EEC80E83E0D81EE11CF11C78
:1007700081149104A104B10429F7FF90EF90DF9058
:10078000CF90BF90AF909F908F900895089590E084
:1007900080E00895FB0101900020E9F73197AF0157
:1007A000461B570BDC01ED91FC910280F381E02D9B
:1007B0000994BC0183E593E00C94CA030F931F9343
:1007C000CF93DF93EC010E94CA038C016BE371E0CD
:1007D000CE010E94CA03800F911FDF91CF911F911C
:1007E0000F910895CF93DF93EC0160E08E810E941A
:1007F000FD0261E08E810E94FD0260E08E810E9418
:10080000FD028BE891E00197F1F7DF91CF91089518
:10081000CF92DF92EF92FF920F931F93CF93DF93CC
:100820006C017C0187E0E80EF11CD0E0C0E0062FEF
:1008300010E0B8010C2E02C0759567950A94E2F796
:100840006170F70181917F010E94FD022196C43001
:10085000D10579F7C601DF91CF911F910F91FF90DC
:10086000EF90DF90CF900C94F203CF92DF92EF9253
:10087000FF920F931F93CF93DF93EC01F62E642F1B
:100880008C810E94FD028D818F3F19F060E00E94F3
:10089000FD020F2D10E08F8584FF25C06E0187E0DB
:1008A000C80ED11CF12CE12CB8010E2C02C075959C
:1008B00067950A94E2F76170F60181916F010E94D9
:1008C000FD02FFEFEF1AFF0A88E0E816F10461F776
:1008D000CE01DF91CF911F910F91FF90EF90DF90AC
:1008E000CF900C94F203B80184E0759567958A95D2
:1008F000E1F7CE010E9408046F2DCE01DF91CF9168
:100900001F910F91FF90EF90DF90CF900C9408040F
:1009100040E0682F83E593E00C94350481E00E9469
:1009200088048BE39FE10197F1F70895CF93DF935C
:10093000823029F4909162039860909362038093CF
:1009400066031092670380E48093680380E18093DC
:10095000690380E580936A0361E0809157030E94F8
:100960002F03809158038F3F19F061E00E942F03FD
:1009700061E0809159030E942F03C3E5D3E09E01FB
:10098000235533408091620384FD0BC084E090E0E6
:1009900021962817390744F461E08E810E942F03C5
:1009A000EECF88E090E0F4CF8BE39DE00197F1F784
:1009B00060E0809157030E94FD0260E0809159033E
:1009C0000E94FD02809158038F3F19F060E00E9461
:1009D000FD028091620384FD34C063E083E593E00F
:1009E0000E940804CBE4D6E4CE010197F1F763E05E
:1009F00083E593E00E9408042197F1F763E083E523
:100A000093E00E94080483E592E00197F1F762E029
:100A100083E593E00E9408048091620380620E9453
:100A2000880484E0809363038CE00E9488040E9421
:100A30008E0482E08093640386E0DF91CF910C9472
:100A4000880480620E9488048BE496E40197F1F7A1
:100A50008091620380620E94880483E592E001979E
:100A6000F1F78091620380620E948804D5CF6430E0
:100A700008F063E090916603691710F06FEF690F5B
:100A8000E62FF0E0ED5AFC4F9489890F80680C94B2
:100A9000880460E080E00E9437056EE371E083E542
:100AA00093E00E94DE0361E081E00E9437056FE47D
:100AB00071E083E593E00C94DE0341E00E9435048D
:100AC00081E090E008951F920F920FB60F921124CB
:100AD0002F933F934F935F936F937F938F939F9346
:100AE000AF93BF93EF93FF9382E292E00E94D8010D
:100AF000FF91EF91BF91AF919F918F917F916F91F6
:100B00005F914F913F912F910F900FBE0F901F90CB
:100B100018951F920F920FB60F9211242F938F9357
:100B20009F93EF93FF93E0913202F0913302808123
:100B3000E0913802F091390282FD1BC090818091D2
:100B40003B028F5F8F7320913C02821741F0E0914E
:100B50003B02F0E0EE5DFD4F958F80933B02FF91ED
:100B6000EF919F918F912F910F900FBE0F901F903B
:100B700018958081F4CF1F920F920FB60F92112417
:100B80002F933F938F939F93AF93BF9380911E02B8
:100B900090911F02A0912002B09121023091150284
:100BA00023E0230F2D3758F50196A11DB11D209389
:100BB000150280931E0290931F02A0932002B0930F
:100BC00021028091160290911702A0911802B09113
:100BD00019020196A11DB11D809316029093170270
:100BE000A0931802B0931902BF91AF919F918F917A
:100BF0003F912F910F900FBE0F901F90189526E8F0
:100C0000230F0296A11DB11DD2CF1F920F920FB6D6
:100C10000F9211242F933F934F935F936F937F9382
:100C20008F939F93AF93BF93CF93DF93EF93FF93F4
:100C300080911402C091E302D0E087FF24C010929B
:100C4000850010928400809114028F5F80931402BB
:100C500080911402082E000C990B8C179D0724F428
:100C6000809114028C30C4F18091840090918500B1
:100C7000049680349C4908F47AC080918400909155
:100C80008500049676C080911402082E000C990B02
:100C90008C179D07C4F6E09114028E2FEE0F990B6E
:100CA000FC01EE0FFF1FE80FF91FE154FD4F80819B
:100CB00086FFC9CFE09114028E2FEE0F990BFC0135
:100CC000EE0FFF1FE80FF91FE154FD4F808160E038
:100CD0008F730E94FD02B7CF209184003091850070
:100CE000E09114028E2FEE0F990BFC01EE0FFF1F07
:100CF000E80FF91FE154FD4F81819281820F931F0C
:100D00009093890080938800E09114028E2FEE0F5B
:100D1000990BFC01EE0FFF1FE80FF91FE154FD4F87
:100D2000808186FF11C0E09114028E2FEE0F990B87
:100D3000FC01EE0FFF1FE80FF91FE154FD4F80810A
:100D400061E08F730E94FD02FF91EF91DF91CF91DF
:100D5000BF91AF919F918F917F916F915F914F91D3
:100D60003F912F910F900FBE0F901F90189580E428
:100D70009CE990938900809388008FEF8093140200
:100D8000E3CF109225021092240288EE93E0A0E0B7
:100D9000B0E08093260290932702A0932802B0939C
:100DA000290287E191E0909323028093220285EC4F
:100DB00090E090932F0280932E0284EC90E0909329
:100DC00031028093300280EC90E090933302809364
:100DD000320281EC90E0909335028093340282ECF1
:100DE00090E0909337028093360286EC90E09093E7
:100DF00039028093380210923B0210923C0210920A
:100E00003D0210923E028091E3028C3008F08AC0CD
:100E100091E0980F9093E30280936B0390E0FC01C4
:100E2000EE0FFF1FE80FF91FE154FD4F88EB9BE029
:100E300092838183109256031092550383E391E0CD
:100E4000909354038093530382E1809357038FEF71
:100E50008093580383E18093590381E180935A037F
:100E600080E180935B038FE080935C038EE080934E
:100E70005D0310925E0310925F0310926003109264
:100E800061031092620381E00E9496041092E602D0
:100E90001092EA021092E9021092EB0289E291E0CC
:100EA0009093E5028093E402E0E0F3E01082148284
:100EB00013821582369683E0EC33F807B9F783E0A6
:100EC00091E0909347038093460380E091E09093F4
:100ED00049038093480384E080934A0383E080932E
:100EE0004B0387E091E090934503809344038AE0AD
:100EF00090E090934D0380934C0384EF91E09093A6
:100F00004F0380934E03109252031092510310929C
:100F10004003109241031092420310924303109237
:100F2000500308958FEF80936B0384CF789484B53A
:100F3000826084BD84B5816084BD85B5826085BDD5
:100F400085B5816085BD80916E00816080936E0063
:100F50001092810080918100826080938100809155
:100F60008100816080938100809180008160809306
:100F700080008091B10084608093B1008091B000C6
:100F800081608093B00080917A00846080937A00C1
:100F900080917A00826080937A0080917A008160EB
:100FA00080937A0080917A00806880937A00109212
:100FB000C1000E94490580916B038C3008F051C03C
:100FC00061E089E00E942F0380916B03282F30E0BD
:100FD000F901EE0FFF1FE20FF31FE154FD4F908167
:100FE000907C9960908310926C0310926D032CE0BA
:100FF000622F0E943F0C829FB001112430E020E05C
:10100000AB01420F531FFA01EE0FFF1FE40FF51F54
:10101000E154FD4F908196FD16C02F5F3F4F2C305D
:10102000310571F781110FC01092800082E080932A
:1010300081001092850010928400B19A80916F0017
:10104000826080936F00E0916B038E2F90E0FC0133
:10105000EE0FFF1FE80FF91FE154FD4F8081806400
:10106000808382E00E949604812C912C5401839409
:1010700040E0442E40E0542E54EB652E712C8091BC
:101080001C0290911D02892B11F40E94490551E028
:10109000509350038FB7F89440911E0250911F0255
:1010A00060912002709121028FBF80914003909146
:1010B0004103A0914203B0914303481B590B6A0BB3
:1010C0007B0B80914C0390914D03B0E0A0E084171E
:1010D0009507A607B70708F017C1C0E080914A033B
:1010E000C81760F4E0914603F0914703EC0FF11D3F
:1010F00062E080810E942F03CF5FF0CF312C80917E
:101100004B03381608F05FC0032D10E0E091480350
:10111000F0914903E00FF11F61E080810E942F03ED
:10112000E0914803F0914903E00FF11F60E08081F6
:101130000E94FD02D501C401032C04C0880F991F31
:10114000AA1FBB1F0A94D2F76C017C01E094F094B3
:10115000212C80914A032816F8F4C22DD0E0E091AA
:101160004603F0914703EC0FFD1F80810E94D102DE
:101170002496CC0FDD1FCC51DD4F892B41F48881A3
:1011800099818C299D29998388832394E2CF888132
:1011900099818E219F21F7CFE0914803F091490377
:1011A000E00FF11F61E080810E94FD028091480301
:1011B00090914903080F191F60E0F80180810E9497
:1011C0002F0333949CCFC4EED2E0FE01878D90A113
:1011D000892B31F4148E8FEF9FEF968F858F11A29C
:1011E000369693E0E032F90789F7F12C80914A03B3
:1011F000F81608F051C0E12C0F2D10E0000F111F60
:1012000004511D4F20914B03E21608F043C0F80132
:10121000608171810E2C02C0769567950A94E2F781
:10122000F29E900111242E0D311DE4EEF2E080E0DB
:10123000458D568D2417350709F4BCC28F5F36964D
:101240008A30B1F760FF24C0E4EEF2E090E080E085
:10125000448D411118C0E0914403F0914503E20F21
:10126000F31F408156E0589FF001599FF00D112463
:10127000EC51FD4F448F368F258F10A2178E61E001
:101280000E942B0105C0019636968A30910501F720
:10129000E394B8CFF394AACF80E099A19111892F5C
:1012A000269693E0C032D907C1F79FB7F8944091D2
:1012B0001E0250911F0260912002709121029FBF77
:1012C0004093400350934103609342037093430360
:1012D0008823D1F0809105038823B1F08091030326
:1012E00090910403019781F41091000311110FC034
:1012F0004114510409F4C3CE0E946702882309F403
:10130000BECE0E940000BBCE10925003F1CF0E94CF
:101310008E0460E080E00E9437058EE591E00E9437
:10132000D90361E087E00E94370588E691E00E94DA
:10133000D90361E087E00E943705D0E0C0E08091EA
:101340001C0290911D028C179D0734F08DE491E0F2
:101350000E94D9032196F3CFFC01E659FE4F20816C
:101360002113DDC1019690931D0280931C02049706
:1013700009F0BECF64E873E080E090E00E9494033F
:1013800060E080E00E94370568E671E083E593E065
:101390000E94DE0360E081E00E9437058FE691E065
:1013A0000E94D90361E084E00E9437056EE771E096
:1013B00083E593E00E94DE0361E08FE00E94370541
:1013C00068E671E083E593E00E94DE0361E080E17E
:1013D0000E94370568E671E083E593E00E94DE0332
:1013E00061E08EE00E94370568E671E083E593E0F6
:1013F0000E94DE0361E08DE00E94370568E671E03F
:1014000083E593E00E94DE0370921B0260921A0251
:10141000C0911A02D0911B02D7FD0FC0CE010E94CD
:101420008C0065E070E080E090E00E9494032597D6
:10143000D0931B02C0931A02EBCF60ED77E080E0FF
:1014400090E00E94940368EE73E080E090E00E94D8
:10145000940360EB74E080E090E00E9494030E94AB
:101460008E046FE082E00E94370568E671E083E554
:1014700093E00E94DE036EE082E00E94370568E69A
:1014800071E083E593E00E94DE0360E082E00E9469
:10149000370568EC70E080E090E00E94940368E813
:1014A00071E083E593E00E94DE0361E084E00E9446
:1014B000370589E991E00E94D90368EC70E080E08B
:1014C00090E00E9494030E948E0460E082E00E94FB
:1014D00037056BE971E083E593E00E94DE0368EE77
:1014E00073E080E090E00E94940360E082E00E945C
:1014F00037056BE971E083E593E00E94DE0361E06C
:1015000084E00E9437058AEA91E00E94D90364E6EC
:1015100070E080E090E00E9494030E948E0460E0FE
:1015200082E00E9437056BE971E083E593E00E9459
:10153000DE0368EE73E080E090E00E94940360E0D8
:1015400082E00E9437056BE971E083E593E00E9439
:10155000DE0361E084E00E9437058DE691E00E94A1
:10156000D90364E670E080E090E00E9494030E945A
:101570008E0460E082E00E9437056BE971E083E54C
:1015800093E00E94DE0368EE73E080E090E00E944A
:10159000940360E082E00E9437056BE971E083E527
:1015A00093E00E94DE0361E084E00E9437058CEA4C
:1015B00091E00E94D90364E670E080E090E00E9430
:1015C00094030E948E0460E082E00E9437056BE97C
:1015D00071E083E593E00E94DE0368EE73E080E053
:1015E00090E00E94940361E084E00E9437058EEA57
:1015F00091E00E94D90364E670E080E090E00E94F0
:1016000094030E948E0460E082E00E94370560EB44
:1016100071E083E593E00E94DE0368EE73E080E012
:1016200090E00E94940368E270E080E090E00E9405
:1016300094030E948E0460E082E00E94370580ECF3
:1016400091E00E94D90364EF71E080E090E00E9495
:10165000940360E08CE00E9437058BEC91E00E94DF
:10166000D90364EF71E080E090E00E94940360E0B1
:101670008DE00E9437058BEC91E00E94D90364EF66
:1016800071E080E090E00E94940360E08EE00E94B0
:1016900037058BEC91E00E94D90360E971E080E0AE
:1016A00090E00E9494030E948E0460E084E00E9417
:1016B00037058DEC91E00E94D90368EB71E080E082
:1016C00090E00E94940368EE73E080E090E00E9456
:1016D000940310921B0210921A0280911A029091A8
:1016E0001B02853B91050CF060C00E948C006FE0EE
:1016F00070E080E090E00E94940310921D0210922E
:101700001C020E948E040E94490580911A02909149
:101710001B02059690931B0280931A02DECF64EFA2
:1017200071E080E090E00E9494030E948E0460E0EB
:1017300081E00E94370585ED91E00E94D90360E0C9
:1017400086E00E9437058AED91E00E94D90361E0AE
:101750008FE00E94370568E671E083E593E00E9420
:10176000DE0361E084E00E94370564EE71E083E50A
:1017700093E00E94DE0361E08DE00E94370568E699
:1017800071E083E593E00E94DE0360EF71E082E2A6
:1017900092E00E94DE0368EB7BE080E090E00E9434
:1017A00094030E948E040E94490510921D0210921B
:1017B0001C029ECD617064CD052E97FB1EF4009433
:1017C0000E94F30B57FD07D00E940E0C07FC03D0BC
:1017D0004EF40C94F30B50954095309521953F4F66
:1017E0004F4F5F4F089590958095709561957F4F0D
:1017F0008F4F9F4F08950E94300CA59F900DB49F6E
:10180000900DA49F800D911D11240895B7FF0C9495
:10181000FB0B0E94FB0B821B930B0895A1E21A2E77
:10182000AA1BBB1BFD010DC0AA1FBB1FEE1FFF1F84
:10183000A217B307E407F50720F0A21BB30BE40BD4
:10184000F50B661F771F881F991F1A9469F760951B
:101850007095809590959B01AC01BD01CF010895D5
:10186000A29FB001B39FC001A39F700D811D1124E1
:10187000911DB29F700D811D1124911D0895991B1A
:1018800079E004C0991F961708F0961B881F7A9577
:10189000C9F780950895EE0FFF1F0590F491E02D94
:1018A0000994F894FFCF0405060001020331323396
:1018B0003435363738392A302300000000FA017BEE
:1018C000029B014702CC01AA01BE01000000006B8F
:1018D000032B03FA02000000005D057B02C703C66C
:1018E000030D0A002A454E544552205448452043D2
:1018F0004F44452A00544F204F50454E20444F4FEF
:101900005221210050415353574F52443A00200076
:101910003031323300416363657373204772616E07
:101920007465640057454C434F4D452121004745A0
:101930005420494E2057495448494E3A3A3A0035C6
:101940000047455420494E2057495448494E3A00D3
:1019500034003200310047455420494E2057495445
:1019600048494E3A3A0052452D4C4F434B494E4759
:10197000002E004C4F434B45442100434F4445004B
:10198000494E434F52524543540047455420415716
:10199000415921212100434F444520494E434F5294
:1019A0005245435420594F552041524520554E41F0
:0A19B0005554484F52495A4544006F
:107E0000112484B714BE81FFF0D085E080938100F7
:107E100082E08093C00088E18093C10086E0809377
:107E2000C20080E18093C4008EE0C9D0259A86E02C
:107E300020E33CEF91E0309385002093840096BBD3
:107E4000B09BFECF1D9AA8958150A9F7CC24DD24C4
:107E500088248394B5E0AB2EA1E19A2EF3E0BF2EE7
:107E6000A2D0813461F49FD0082FAFD0023811F036
:107E7000013811F484E001C083E08DD089C08234E0
:107E800011F484E103C0853419F485E0A6D080C0E4
:107E9000853579F488D0E82EFF2485D0082F10E0AE
:107EA000102F00270E291F29000F111F8ED06801E7
:107EB0006FC0863521F484E090D080E0DECF843638
:107EC00009F040C070D06FD0082F6DD080E0C81688
:107ED00080E7D80618F4F601B7BEE895C0E0D1E017
:107EE00062D089930C17E1F7F0E0CF16F0E7DF06D8
:107EF00018F0F601B7BEE89568D007B600FCFDCFD4
:107F0000A601A0E0B1E02C9130E011968C91119780
:107F100090E0982F8827822B932B1296FA010C0160
:107F200087BEE89511244E5F5F4FF1E0A038BF0790
:107F300051F7F601A7BEE89507B600FCFDCF97BE46
:107F4000E89526C08437B1F42ED02DD0F82E2BD052
:107F50003CD0F601EF2C8F010F5F1F4F84911BD097
:107F6000EA94F801C1F70894C11CD11CFA94CF0C13
:107F7000D11C0EC0853739F428D08EE10CD085E9AC
:107F80000AD08FE07ACF813511F488E018D01DD067
:107F900080E101D065CF982F8091C00085FFFCCF94
:107FA0009093C60008958091C00087FFFCCF809118
:107FB000C00084FD01C0A8958091C6000895E0E648
:107FC000F0E098E1908380830895EDDF803219F02E
:107FD00088E0F5DFFFCF84E1DECF1F93182FE3DFCA
:107FE0001150E9F7F2DF1F91089580E0E8DFEE27F6
:047FF000FF270994CA
:027FFE00040479
:00000001FF
